:020000040800F2
:1000000000180020312A0008D1280008D328000851
:1000100000000000000000000000000000000000E0
:10002000000000000000000000000000D5280008CB
:100030000000000000000000D7280008D9280008B0
:10004000B12A000800000000B12A0008B12A000807
:10005000B12A0008B12A0008B12A0008B12A000814
:1000600000000000B12A0008B12A0008B12A0008E7
:10007000B12A0008B12A0008B12A000800000000D7
:10008000B12A00080000000000000000B12A0008AA
:1000900000000000B12A0008B12A0008B12A0008B7
:1000A00000000000B12A000800000000B12A00088A
:1000B000B12A00080000000000000000B12A00087A
:1000C00010B5064C2378002B07D1054B002B02D02E
:1000D000044800E000BF0123237010BD1C02002073
:1000E00000000000886D0008044B10B5002B03D001
:1000F0000349044800E000BF10BDC04600000000F6
:1001000020020020886D00080023C25C0133002A11
:10011000FBD1581E7047000002B4714649084900DF
:10012000095C49008E4402BC7047C04603B4714666
:10013000490840004900095E49008E4403BC7047ED
:10014000002243088B4274D303098B425FD3030A16
:100150008B4244D3030B8B4228D3030C8B420DD329
:10016000FF22090212BA030C8B4202D312120902B7
:1001700065D0030B8B4219D300E0090AC30B8B42F5
:1001800001D3CB03C01A5241830B8B4201D38B03A3
:10019000C01A5241430B8B4201D34B03C01A524148
:1001A000030B8B4201D30B03C01A5241C30A8B428B
:1001B00001D3CB02C01A5241830A8B4201D38B0276
:1001C000C01A5241430A8B4201D34B02C01A52411A
:1001D000030A8B4201D30B02C01A5241CDD2C3098C
:1001E0008B4201D3CB01C01A524183098B4201D308
:1001F0008B01C01A524143098B4201D34B01C01AF3
:10020000524103098B4201D30B01C01A5241C3086A
:100210008B4201D3CB00C01A524183088B4201D3D9
:100220008B00C01A524143088B4201D34B00C01AC5
:100230005241411A00D20146524110467047FFE731
:1002400001B5002000F0F0F802BDC0460029F7D04B
:1002500076E7704703460B437FD4002243088B4266
:1002600074D303098B425FD3030A8B4244D3030B3D
:100270008B4228D3030C8B420DD3FF22090212BA02
:10028000030C8B4202D31212090265D0030B8B427E
:1002900019D300E0090AC30B8B4201D3CB03C01A68
:1002A0005241830B8B4201D38B03C01A5241430B43
:1002B0008B4201D34B03C01A5241030B8B4201D333
:1002C0000B03C01A5241C30A8B4201D3CB02C01A9E
:1002D0005241830A8B4201D38B02C01A5241430A16
:1002E0008B4201D34B02C01A5241030A8B4201D305
:1002F0000B02C01A5241CDD2C3098B4201D3CB01AC
:10030000C01A524183098B4201D38B01C01A52415A
:1003100043098B4201D34B01C01A524103098B425E
:1003200001D30B01C01A5241C3088B4201D3CB0049
:10033000C01A524183088B4201D38B00C01A52412C
:1003400043088B4201D34B00C01A5241411A00D2DC
:1003500001465241104670475DE0CA0F00D0494245
:10036000031000D34042534000229C4603098B42B5
:100370002DD3030A8B4212D3FC22890112BA030A3D
:100380008B420CD3890192118B4208D389019211BF
:100390008B4204D389013AD0921100E08909C30944
:1003A0008B4201D3CB01C01A524183098B4201D346
:1003B0008B01C01A524143098B4201D34B01C01A31
:1003C000524103098B4201D30B01C01A5241C308A9
:1003D0008B4201D3CB00C01A524183088B4201D318
:1003E0008B00C01A5241D9D243088B4201D34B0033
:1003F000C01A5241411A00D20146634652415B1075
:10040000104601D34042002B00D549427047634655
:100410005B1000D3404201B5002000F005F802BD9A
:100420000029F8D016E770477047C0468446100090
:1004300062468C461900634600E0C0461FB500F0D6
:100440000DFF002801D40021C8421FBD10B500F0E7
:100450005DFE4042013010BD10B500F0FFFE0028E7
:1004600001DB002010BD012010BDC04610B500F01A
:10047000F5FE002801DD002010BD012010BDC046A2
:1004800010B500F085FE002801DC002010BD012021
:1004900010BDC04610B500F07BFE002801DA002038
:1004A00010BD012010BDC046F0B54F464646D646A9
:1004B0000D000400C0B51F0011002803620F400AA0
:1004C00010437A00520DE3003C039146640AFA0F90
:1004D0004F0F6E0027439246B846760DED0FC900C8
:1004E000954200D199E04C46341BA446002C00DC18
:1004F0007CE04A46002A00D1B8E0C54A964200D1C5
:100500001CE180223C0012041443A0466246382AB3
:1005100000DD61E11F2A00DDCCE164462022121BD0
:10052000444694400F00A14664469140E7404C4643
:100530004A1E91413C43424621436446E240801AB0
:100540005C1AA3429B415F42C71B3B0200D4D0E030
:100550007F027F0A002F00D1FFE0380001F08AFD02
:1005600001000839202322005B1A8F40DA408C40BA
:100570001743B14200DAFFE0891B4B1C1F2B00DD43
:10058000A8E020223900D21A200094409140D8409F
:10059000621E9441DF40002601430C43630709D0EB
:1005A0000F232340042B05D0231DA342A441644202
:1005B0003F191C003B0200D49EE0954B01369E4241
:1005C00000D1B7E0934AE40817407B0771057F022A
:1005D00023433F0B4A0D12053A43ED072A43180007
:1005E0001100E0BCBA46B146A846F0BD002C4BD085
:1005F0004C46A41BA446002E00D023E104001C435B
:1006000000D1AFE16246541E012A00D115E2804DAF
:10061000AC4500D1C8E1A4461BE14A46B21A944653
:10062000002A00DCACE04A46002A43D0784A9642D1
:1006300000D1AFE180223C0012041443A046624680
:10064000382A67DC1F2A00DC5FE14746203AD740A2
:100650006246202A05D064464022121B444694403C
:1006600021434A1E91410C003C4357E03A000A43A3
:1006700000D105E12200013A012C00D182E1644C55
:10068000A4455BD0944641E7634C771C274200D0D9
:10069000C4E004001C43002E00D069E1002C00D10E
:1006A000BFE144460C4300D0D0E14207DB081343CE
:1006B000C00829E03A000A4300D170E1624664466E
:1006C000013A012C00D1E0E0514CA44500D161E198
:1006D0009446B4E73A001F39CA401100202B03D0DA
:1006E0004022D31A9F403C43631E9C4100270026B2
:1006F0000C43630700D053E7B446E4087B07234369
:10070000F808434A94451DD06246070352053F0B43
:10071000520D60E744460C43621E9441E4189C422B
:100720009B415F423F183B02E3D5394B01369E4265
:1007300000D0B5E03200002700234CE74207DB0879
:100740001343C0081A00024300D1E1E180273F03B0
:1007500007433F032E4A3F0B3DE7200001F08AFC90
:10076000010018311F2900DCFCE60838844027000E
:100770000024B14200DBFFE6264A761A17400DE757
:10078000002A2FD04A46921B9446002E00D1ADE09D
:100790001F4A914500D10FE18022120410436246A6
:1007A000382A00DD0FE11F2A00DD80E164462022A7
:1007B0001E00121B6746040093409440FE405A1EE0
:1007C0009341F84034431C43804464188C42BF4139
:1007D0007F424E464744A6E742460A4311004A1E5E
:1007E0009141ADE60C4C721C224200D0A1E0020007
:1007F0001A43002E00D0FAE0002A00D145E13A0069
:100800000A4300D046E14207DB081343C0087BE7F8
:10081000FF070000FFFF7FFFFE07000047465C1A4E
:10082000C21BA342BF417F42B94617004A46BF1AC6
:100830003A0200D58DE023003B4300D08AE6002039
:10084000002561E7B44CA14500D1ADE0802424042B
:1008500020436446382C3DDC62461F2C00DDB7E0A7
:1008600020251E002D1B0400AB40AC40D640D040DC
:1008700042465D1EAB413443121A904623432CE09E
:100880004207DB081343C0083BE75C189C429B41CE
:1008900040445B42C71801263B0200D429E70226E8
:1008A0009E4A63081740012214401C43FB071C4367
:1008B0007F0873E64446203AD4406246202A05D099
:1008C00067464022D21B4746974039434A1E914112
:1008D000214335E60343581E8341CC1AA142BF4150
:1008E00043467F4255464E46DF1B2EE602001A4322
:1008F00000D1BDE062466446013A012C00D1E5E03A
:10090000854CA44558D0944649E764462022121BE2
:10091000444694400F00A14664469140E7404C464F
:100920004A1E91413C4342460C436146CA408018EE
:10093000F4E6794CA24200D1FDE6591899429B4158
:1009400040445F42C719FC07490816000C437F0862
:10095000CFE6CC1AA142BF4143467F42181A554602
:10096000C71BF7E5C9087B0755460B43F808C8E6DF
:10097000002C00D081E043460B4315D18020002598
:100980000003E3E65C1AA3429B41C71B5B420126BE
:10099000FF1ADAE54207DB081343C008D2E6420734
:1009A000DB081343C008ACE643464246C9085B0770
:1009B00055460B43D008C5E6434642465B07C90887
:1009C0000B43D008BEE603431C00631E9C41FCE6BB
:1009D0000200203CE24014006246202A03D0402559
:1009E000AD1AA8400343581E8341234375E7002AEC
:1009F000E2D03A000A43CDD04207DB0813438022FD
:100A0000C0081203104206D0FC08144203D1200093
:100A1000CB087A0713435A0FDB005207DB08134356
:100A200090E643460B4300D109E743464246C908D6
:100A30005B0755460B43D00866E6CC1AA1428941B4
:100A40003F1A4942554601267F1A7EE542465C1A06
:100A5000871AA34292415242BF1A3A023DD5CC1A9C
:100A6000A1428941434649421F1A55467F1A95E5DE
:100A70007B07C9080B43F80843E64446DB080C43F0
:100A800030D142071343C0085CE67B07C9080B431B
:100A9000F80839E65C189C429B4140445B42C71809
:100AA0003B0200D425E61D4B01261F4021E6040031
:100AB000203AD4406246202A04D040226646921B47
:100AC000904003435A1E93411C437EE65C188C42BF
:100AD0008941404449424718DDE623003B4300D1A9
:100AE000ADE606E6440723438024C00824032042E1
:100AF00008D04246D608264204D155463000CB08DD
:100B000051070B435A0FDB00DB085207134319E66A
:100B10000023014A1F005EE5FF070000FFFF7FFF83
:100B2000F0B557464E464546DE46E0B581460500DF
:100B30000C03480092461F0085B0240B400DCE0FD9
:100B4000002800D156E1D44B984200D172E16B0FDE
:100B5000E4001C4380231B0423439846CF4BED0045
:100B60009B4600239946834400933C037B005046F8
:100B7000240B5B0DFF0F002B00D11FE1C64A9342EF
:100B800000D162E1C549420F8C46E4005946144346
:100B9000802263441204CB1A14439B46C2000020F7
:100BA00033007B409A464B460F2B27D8BC499B000D
:100BB000CB589F46B246009B022B16D0032B00D188
:100BC0008EE2012B00D0D9E00023002400255246FC
:100BD0001B052343D20713432800190005B0F0BCBE
:100BE000BB46B246A946A046F0BD00240025AA4B4C
:100BF000EDE7BA46A04615000090DCE7444500D278
:100C0000C7E100D1C2E101235B429C462E00404671
:100C10000025E3442302140E1C431B0C99462304B5
:100C20001F0C1202494600920197FFF70FFB0200CA
:100C30007A430B04310C804619438A4207D90123B9
:100C40005B429C460919E0448C4200D807E2881AAE
:100C50004946FFF7FBFA09048C4631046646019ABF
:100C6000090C4243030031438A4204D90919013B6C
:100C70008C4200D8EDE1881A424612041A4390468D
:100C80004146009B0E041B0C1F000293009B360C78
:100C90001B04190C0B007343120C7E430391514348
:100CA0007A431F0CBC4676186644B14203D98021B2
:100CB00049028C466244310C8A1831041E04360CF9
:100CC0008E19904202D312D1B54210D24346591E1A
:100CD000009B9C4665441F009D429B415B421B1943
:100CE000C018844200D2A0E100D19BE18846AE1B2F
:100CF000B542AD41801A6D42401B844200D1D5E11E
:100D00004946FFF7A3FA019A0B044243310C050050
:100D100019438A4200D96CE1881A4946FFF796FACE
:100D2000019A360442430904360C03000E43B242D2
:100D300000D953E10398B61A02002D041D43029F07
:100D40002B041B0C5A437B439C46290C4843130C31
:100D5000844463447943984203D980204002844606
:100D60006144180C12041B04120C41189B188E428B
:100D700000D2FFE000D1FAE001231D43494A5A4462
:100D8000002A00DCAAE06B0700D03DE1ED084346F5
:100D9000DB0106D54246444B1A4090468022D200E1
:100DA0005A44424B9A4200DD1FE743465B071D430E
:100DB000434652055C02240B530D08E7524622437A
:100DC00000D17BE0002C00D1FAE0200001F052F9C4
:100DD00002000B3A1D2301009B1A52460839DA40E3
:100DE0008C40144352468A40314B58449B468344BE
:100DF0000020D5E64B462343984644D0002C00D132
:100E0000CEE0200001F036F9010002000B391D236D
:100E10005B1A49461000D940083884400B004D4603
:100E20002343984685402348831A9B4600239946CE
:100E300000939AE64B46234398461DD108239946D2
:100E4000063B0025834600938FE65246224309D194
:100E5000022349461943184B89469C460024022028
:100E6000E3449DE603234A461A43134B91469C46AE
:100E700052460320E34493E60C239946093BA046DF
:100E80008346009371E60423994600239B46013371
:100E90000025009369E6C046FF07000001FCFFFF44
:100EA000A06D0008FF030000FFFFFFFEFE0700002B
:100EB000F30300000DFCFFFF01F8FFFF494601238B
:100EC00019438946002401206AE6002380249A46BB
:100ED00000258A4B24037AE601256D4201239B1AE3
:100EE000382B00DD70E61F2B00DCBFE01F214942DC
:100EF0008A1A4146D1400A00202B04D04146804B3B
:100F00005B4499400D436B1E9D4107232A431D00FE
:100F100000241540134200D1D4E00F2100231140DA
:100F2000042900D1CBE0111D9142924152429B18FD
:100F30000A00190200D4C2E001230024002546E67D
:100F4000802341461B03194208D01C4206D11C4392
:100F50002403BA461500694B240B38E68024434627
:100F600024031C432403B246644B240B2FE6002BBE
:100F700000D103E7A619681EA64200D28DE08E427A
:100F800000D2A3E000D1B3E00500F5E6AA4200D903
:100F900039E64346DE0758086B081E43ED0739E67D
:100FA000484601F067F801000200153120321C2983
:100FB00000DC2CE74B46083883400025984632E792
:100FC00001F058F803001A00153220301C2A00DC0A
:100FD00000E75446083B00229C4005E73619013BD8
:100FE000B44200D9A6E6B24200D8A3E6831E361961
:100FF000A0E60919013D8C4200D98DE68A4200D84D
:101000008AE6851E091987E60F232B40042B00D1A1
:10101000BCE605235B42AB429B4104355B42ED08D5
:101020009844B4E6AF4200D960E6824204D800D0CA
:101030005CE6AE4200D859E602235B429C46009B28
:10104000E0449C4665449D429B415B421B19C0188D
:101050004DE68A4200D80EE6831E09190BE68A4245
:1010600000D8F4E5831E98460919F0E525492800C3
:1010700059448D4042468A40691E8D414146D840C0
:10108000D94002432A430B00510700D151E70F21F9
:101090001140042900D046E74BE705008E4200D0FE
:1010A0006AE6009A934200D066E667E6164A5A441A
:1010B000002A00DC10E701230025984467E65D075D
:1010C0005B021C0BD2080023154380E50098023D0B
:1010D00042008242BF417F423C1936190092DDE74F
:1010E0008024434624031C432403044B240B6EE555
:1010F000009A9A42EAD30500D3E7C046FF070000F2
:101100003E0400001E040000FF030000F0B54E4640
:101110004546DE4657469046E0B517001A03120BC7
:101120000500844619480E034C0091465A00DB0F17
:101130009B46360B640DC90F520D844219D0824272
:1011400010D0012094420ED14E450CD10120C4454F
:1011500009D1594517D0002C05D130002843431E32
:10116000984100E00120F0BCBB46B246A946A0462B
:10117000F0BD330001202B43F5D1A242F3D14B4601
:101180003B43F0D1E2E70020EDE7C046FF07000057
:10119000F0B54746CE460400180016001B031B0B93
:1011A0002D4D4A00994680B543000F03A446B04632
:1011B0003F0B520DC90F5B0DC00FAA4221D0AB42AD
:1011C00013D0002A22D13C43002B02D14D462E439E
:1011D00022D0002C10D0814222D0022001390840B8
:1011E0000138C0BCB946B046F0BD4D462E4329D1AA
:1011F000002AF0D13C43EED10028F2D10120404238
:10120000EFE73D0025431DD19342EED0002BE2D104
:101210004C462643DFD1E0E70020002CE1D0DCE79C
:101220009A420ADCE8DB4F45D7D80ED000204F4564
:10123000D7D20029E2D00800D3E74342584140000A
:101240000138CEE702204042CBE7C445C5D8002094
:10125000C445C6D2EDE7C046FF070000F0B54746DB
:10126000CE460400180016001B031B0B2C4D4A0031
:10127000994680B543000F03A446B0463F0B520D7C
:10128000C90F5B0DC00FAA420DD0AB4210D0002A8F
:1012900027D13C43002B11D14D462E430ED10020C7
:1012A000002C15D00EE03D00254310D1934218D1FB
:1012B0004D462E430BD1002A02D13C43002C0BD0CB
:1012C000814214D0022001390840013800E0022098
:1012D000C0BCB946B046F0BD0028F9D1012040425B
:1012E000F6E7002BECD14C462643E9D1EAE79A42D7
:1012F00004DD4342584140000138E9E79A42EBDB04
:101300004F45DFD806D000204F45E1D20029E5D077
:101310000800DDE7C445D5D80020C445D8D2F5E79C
:10132000FF070000F0B557464E464546DE46E0B59D
:1013300098460C034B000600924687B0240B5B0DC9
:10134000CF0F002B00D15CE1D94A934200D175E167
:10135000420FE4001443802212041443D54AC5000E
:10136000944663440093002399469B464346424675
:101370001E03D20F5B0050469046360B5B0D00D12A
:1013800020E1CB4A934200D162E1CA49420F8C4628
:1013900000996344F6008C46164380229C44120454
:1013A00063461643C2000020009300994346013172
:1013B0008C4649467B4001930F2926D8BE4B8900B5
:1013C00059588F46434601933400150083465B46C7
:1013D000022B16D0032B00D103E2012B00D0CDE06D
:1013E000002200240025019B12052243DB071A433B
:1013F0002800110007B0F0BCBB46B246A946A04683
:10140000F0BD00240025AA4AEDE7280C2D042D0C80
:101410002B00110C1204120C5343984613002F009A
:10142000434399464F434F44BB4647460B003F0C4E
:10143000BA464343DA440293D14504D980277F0258
:10144000B9464B44029353461B0C9B4653461F041C
:1014500043461B041B0C98463B0043440493330C47
:101460003604360C9846330043439946434643437B
:101470002F009A46434677435D43380C4D44451947
:10148000A94503D980235B029946CA443F04280C2E
:101490003F0C2D04ED19270C2404240C030020001C
:1014A00050437A4391463A0053440593030C9A46BD
:1014B0004A43614349445144AB44894503D980239D
:1014C0005B0299464A4400040B0C000C09040918FD
:1014D00020009946434670435C437E435F43030CC0
:1014E0009846A41944444A440397A64204D9802349
:1014F0005B029846474403972304029E9A46059B45
:101500005E449846AE42AD4176188E428941000451
:10151000000C504440446D424719B8469346494236
:101520008946C344D94498428041A845AD4193457A
:101530009241894589416D4240422843240C5242E0
:1015400049420A43039B00198018C7184B46DC0D1B
:10155000049B75021D436A1E95414B46F60D7F02A2
:1015600035435A023C431543FB0100D41CE10121E1
:101570006A080D401543E207154364084F4961446A
:10158000002900DCB0E06B0709D00F222A40042AB2
:1015900005D02A1DAA42AD416D4264191500E30130
:1015A00004D58021464AC90014406144454A91420D
:1015B00000DD26E76207ED08640249051543240BA8
:1015C0004A0D10E75246324300D17FE0002E00D191
:1015D000DCE0300000F04EFD02000B3A1D2301005C
:1015E0009B1A52460839DA408E40164352468A40CA
:1015F000009B3549181A03008C4663440020009371
:10160000D3E6250005434AD0002C00D1B0E02000ED
:1016100000F030FD010002000B391D2310005B1AA1
:101620003100350008388440D94085400C432648B5
:10163000831A0093002399469B4697E605002543AD
:1016400026D1082200930223002491469B468DE672
:101650005246009B324310D1154900268C46634404
:101660004946009302231943894602209DE65B46C2
:101670000197022B00D0ADE6C3E60D4A0320944645
:1016800063444A46009303231A43914652468CE62C
:101690000C2200930323050091469B4666E6042333
:1016A000994600230093013300249B465EE6C04622
:1016B000FF07000001FCFFFFE06D0008FF030000D2
:1016C000FFFFFFFEFE0700000DFCFFFF4946012360
:1016D000194389460026012067E60023802400255F
:1016E000434A019324037EE60120401A382800DD96
:1016F00076E61F285BDD1F2223005242511ACB40A1
:101700001900202803D03B4A6244944025436A1EB6
:1017100095412A000A4307210D000024154011427B
:101720005BD00F2100241140042953D0111D914298
:1017300092415242A4180A0023024BD501220024F0
:10174000002550E680231B031C4209D01E4207D10E
:1017500033431C0343461500240B254A019342E6FC
:101760008022120314432403214A240B01973AE6F2
:1017700000F080FC01000200153120321C2900DC41
:101780004BE7340008380025844050E700F072FC35
:1017900003001A00153220301C2A00DC1EE75646D2
:1017A000083B00229E4023E7009B9C46E6E6124948
:1017B000220061442E008D408A40C640691E8D4142
:1017C00032432A43C4405307B6D00F2111400429A5
:1017D000ACD1B1E765076402240BD208154300229F
:1017E00001E68022120314432403014A240BFAE584
:1017F000FF0700003E0400001E040000F8B5574635
:101800004E464546DE46E0B51E0017004A000B0373
:10181000520D5B0A9046420F1A43CD0FCD4C310357
:10182000C300944670007A0F490AFF009A46B946F1
:10183000400DF60F1143A04200D1B1E00122564005
:10184000B346B54200D188E04246121A002A00DCB5
:10185000AEE0002800D1C1E0BE48804500D151E192
:10186000802000040143382A00DD7BE11F2A00DDCF
:10187000EEE120203E00801A0C00D640D140874087
:1018800062468440521A781E874194463443274367
:10189000DC1BA3429B4162465B42D31A99464B46EE
:1018A0001B0200D418E14B465802430A99464B46A6
:1018B000002B00D137E1484600F0DCFB010008397D
:1018C0002023220048465B1ADA4088408C40434679
:1018D0001043884500DD36E1C91A4B1C1F2B00DD83
:1018E000EAE020222600D21A01009440DE40D840CF
:1018F00000239140621E94418146984631430C4337
:10190000630709D00F232340042B05D0231DA342D6
:10191000A4416442A1441C004B461B0200D4DEE0FB
:1019200041468C4B0131994200D1E7E04B468A4851
:10193000E4080340180049055B07400223434A0DB1
:10194000040B1205ED0722432A4318001100F0BCD6
:10195000BB46B246A946A046F8BD4246121A002A26
:1019600052DD002800D19CE0A04500D1CAE08020D3
:1019700000040143382A00DD49E11F2A00DC97E119
:1019800010000E002038C640202A04D04020821AC1
:1019900091400F43B9464C46621E944134433AE1AC
:1019A0000A003A4328D0B346B5422BD06B4A424492
:1019B000002A5DD042464446821A002C00D0F5E051
:1019C00065461D4300D19CE1551E012A00D1FBE173
:1019D000604CA24200D1BDE12A00F0E0080038438B
:1019E00000D1C3E0501E012A00D1A8E1594CA24207
:1019F00000D187E0020036E701225640B346B542E7
:101A000000D021E7554A4244002A00D1B5E04246C1
:101A10004446821A002C00D138E14E4EB04200D12B
:101A2000DEE18026644636043443A446382A00DDCD
:101A300096E11F2A00DD24E22026B41AA24664465D
:101A40005646B440A1461C004E46D44026433400BE
:101A50005646B3405E1EB3411C436346D340C9188B
:101A6000E419BC42BF417F42B94680468944D8E070
:101A700040463B4C0130204200D0B4E040460028B4
:101A800000D044E16046184300D190E1080038439B
:101A900000D0AAE16146DB0849070B436146CC0848
:101AA00027E00800384361D0501E012A00D139E1F7
:101AB000A24227D002005DE702001F39CA40110090
:101AC000202B03D04022D31A98400443631E9C412C
:101AD0000023994698460C43630700D012E74B4613
:101AE0004A46E4085B072343D408424619498A4220
:101AF0000ED024035205240B520D22E70A000024C5
:101B000000231EE7DB086246520713436246D408EF
:101B10001A00224300D1FCE1802212031443240363
:101B20000C4A240B0DE7200000F0A4FA0100183144
:101B30001F2900DCC4E60838844043462000002406
:101B4000884500DCC8E6044A5B1A10409846814686
:101B5000D6E6C046FF070000FFFF7FFF01F8FFFF4A
:101B6000FE0700000F437A1E974191E66146DB08AD
:101B700049070B436146CC08B8E74046D34C0130D7
:101B8000204200D0A2E04046002800D001E160469B
:101B9000184300D15EE10800384300D05FE16146A0
:101BA000DB0849070B436146CC08A2E7C84DA842B1
:101BB00000D1CFE0802564462D042C43A446382A6A
:101BC00056DC1F2A00DDD1E020251E00AD1A644638
:101BD000AB40AC40D6405D1EAB413443234364462A
:101BE000D440091B49E06046DC1B461AA3428041F1
:101BF0004042814630004E46801B8146000276D42A
:101C00004B46234300D052E60024002571E73943B8
:101C10000C00621E9441E4189C429B415B42634469
:101C200099464B461B0200D456E701239C46A84B1D
:101C3000E044984538D04B46A6480122034018009E
:101C4000630814401C43C3071C434308994657E6E6
:101C500010000E002038C640202A04D04020821AEE
:101C600091400F43B9464F467A1E974137430FE6DE
:101C700062461A4313005A1E9341FC1AA742BF4101
:101C80007F42CB1B99465D46804608E666461E436A
:101C900000D1BEE0561E012A00D109E18C4CA242BF
:101CA00000D119E13200C1E642460024002348E693
:101CB00020200C00801A3E0087408440D640781EC9
:101CC0008741D14034433C438C44A4E7804A90424E
:101CD00000D1E9E0DF199F429B4161445B42C91892
:101CE000CC077F084B08994680463C43F4E6FC1A33
:101CF000A742BF4163467F42C91ACB1B99465D4646
:101D0000D5E5FF084B075D463B43CC08EEE662464F
:101D10001A4300D082E00B003B431BD180240025F6
:101D20002403F9E6DC199C429B41614489465B42ED
:101D300099444B461B0244D401239846CCE6DC1B55
:101D40006246A3429B41511A5B42CB1A994601233A
:101D50009846A4E5FF084B075D463B43CC08D7E611
:101D600062461A431400631E9C4179E615006446DE
:101D7000203DEC40A046202A05D040256446AA1A02
:101D8000944023439A465446631E9C414346234352
:101D900073E762461A4323D00A003A4300D0A0E01A
:101DA0006246DB08520713436246D408B0E60B00D4
:101DB0003B4300D128E7FF084B075D463B43CC0877
:101DC00097E60223984636E7FC1AA742BF416346CE
:101DD0007F42C91ACB1B994601235D4698465EE5B2
:101DE0004B07FF083B43CC0892E6DC1B6046A3424E
:101DF000B641401A7642801B8146000260D5FC1A2B
:101E0000A742BF4163467F42C91ACB1B99465D4634
:101E100076E5FF084B073B43CC0867E60A00DB0882
:101E20003A4300D16FE66246520713436246D40834
:101E300080221203144207D0C808104204D15D4624
:101E40000400FB0849070B435A0FDB00DB0852076D
:101E500013435DE64B07FF083B43CC0849E6DC191A
:101E60009C429B41614489465B4299444B461B021C
:101E700000D431E64A46174B1A4001239146984652
:101E80002AE616006446203EF440A046202A05D0EB
:101E900040266446B21A944023439A465446631E31
:101EA0009C4143461C43DBE502000024002348E537
:101EB000DC19BC42BF41614489467F42B94438E7DE
:101EC0004B46234300D19FE606E6C046FE070000CE
:101ED000FF070000FFFF7FFFFF084B073B43CC08D5
:101EE00016E66246DB08520713436246D408802296
:101EF0001203144207D0C808104204D15D46040002
:101F0000FB0849070B435A0FDB005207DB0813435A
:101F1000FEE50023014A1C0013E5C046FF07000050
:101F200070B505000C481C0316005B000A0349004D
:101F3000120B490D240B5B0D814208D0064A00208C
:101F4000934203D120003043431E984170BD0120CD
:101F50002A43FBD1F2E7C046FF0700000A0030B574
:101F6000134C530009030500090B00205B0DD20F31
:101F7000A34204DD0F48834202DD0F4BD01830BD71
:101F80008020400301430D48C01A1F2808DD0C487B
:101F9000C31AD9400B005842002AF0D11800EEE7CE
:101FA000084CC540A446634499400B002B43F2E71C
:101FB000FE0300001D040000FFFFFF7F330400004C
:101FC00013040000EDFBFFFF70B5002816D0C31707
:101FD000C5185D40C40F280000F04CF8114A121AD1
:101FE0000A2816DC03002E0015339E400B23181A16
:101FF000C54052052D032D0B530D03E00024002393
:10200000002500261B052B43E4072343300019005D
:1020100070BD0B38854052052D0300262D0B530D46
:10202000F0E7C0461E04000010B5041E10D000F0FA
:1020300021F80F4B1B1A0A2811DC0B222100121A5F
:10204000D14015300A035B058440120B5B0D01E0A3
:10205000002300221B0513432000190010BD22009D
:102060000B3882405B0512030024120B5B0DF1E775
:102070001E0400001C2101231B04984201D3000C04
:1020800010391B0A984201D3000A08391B099842EB
:1020900001D30009043902A2105C40187047C04601
:1020A0000403020201010101000000000000000021
:1020B00073B5902614000B4DF6052870697030003A
:1020C0002100002200F048FE102329000093064A58
:1020D0000E3B064801F0F6FA30000122210000F024
:1020E0003BFE73BD2000002000000020780200208D
:1020F0008023F7B590270D4D5B420343FF05380061
:102100002B7000220C0000F027FE1023084E29003F
:102110003200009307480D3B01F0D4FA3800012249
:10212000210000F019FEB078FEBDC046200000205E
:1021300000000020780200208023F7B590270F4E82
:102140005B420343FF053800337000220C0000F0AF
:1021500003FE10230A4D31002A00009309480C3B6E
:1021600001F0B0FA38000122210000F0F5FDEB7813
:10217000A8781B02C01880B2FEBDC0462000002017
:1021800000000020780200208023F7B59027104E31
:102190005B420343FF053800337000220D0000F05E
:1021A000DBFD10230B4C3100220000930A480B3B4F
:1021B00001F088FA38002900012200F0CDFD2079D5
:1021C000E37800041B02C018A378C018FEBDC04607
:1021D00020000020000000207802002070B50400DC
:1021E000020036217E20FFF763FF21008020FFF7E9
:1021F0007FFF0500220033211B20FFF759FF22003B
:1022000000211A20FFF754FF220000211C20FFF7B5
:102210004FFF220000211D20FFF74AFF220000216E
:102220001F20FFF745FF280070BD70B504000D00AA
:1022300031200121FFF780FF012128603320FFF7C3
:102240007BFF012168603520FFF752FF0121A86064
:102250003620FFF771FF012120603820FFF76CFF67
:10226000012160603A20FFF743FF0121A0603B207D
:10227000FFF73EFF0121E0603C20FFF75DFF0121F9
:1022800020613E20FFF758FF012160614020FFF7E9
:102290002FFF0121A0614120FFF72AFF0121E0610A
:1022A0004220FFF749FF012120624420FFF720FF71
:1022B000012160624520FFF71BFFA06270BD000096
:1022C000F0B589B014001D000191FFF7ADFE0200CA
:1022D0000B0002900391FFF725F8019B04900591F4
:1022E0005868FFF771FE0022854BFFF787FA00223E
:1022F000844BFFF717F822002B00FFF713F8019B20
:10230000060018680F00FFF75FFE00227C4BFFF706
:1023100075FA00227C4BFFF705F802000B00300035
:102320003900FEF7C1F8019B060098680F00FFF71F
:102330004BFE0022754BFEF7F5FF22002B00FEF747
:10234000F1FF22002B00FEF7EDFF02000B00300032
:102350003900FEF7A9F8019B0600D8680F00FFF7C7
:1023600033FE0022694BFEF7DDFF0022684BFEF7CB
:10237000D9FF22002B00FEF7D5FF22002B00FEF72D
:10238000D1FF22002B00FEF7CDFF02000B00300032
:102390003900FEF789F8029A039BFEF7C3FF069007
:1023A0000791019B5869FFF70FFE0022594BFEF77A
:1023B000B9FF22002B00FEF7B5FF019B060018694C
:1023C0000F00FFF701FE0022534BFEF7ABFF0200A8
:1023D0000B0030003900FEF767F8019B0600986992
:1023E0000F00FFF7F1FD00224C4BFEF79BFF220090
:1023F0002B00FEF797FF22002B00FEF793FF020051
:102400000B0030003900FEF74FF8019B0600D86939
:102410000F00FFF7D9FDFC2300229B05FEF782FF8A
:1024200022002B00FEF77EFF22002B00FEF77AFF32
:1024300022002B00FEF776FF02000B00300039006F
:10244000FEF732F802000B0006980799FEF72CF809
:10245000019B06900791586AFFF7B6FD00222B4BAF
:10246000FEF760FF00222E4BFEF75CFF22002B00E0
:10247000FEF758FF019B0600186A0F00FFF7A4FD46
:102480000022224BFEF74EFF0022254BFEF74AFFAB
:1024900002000B0030003900FEF706F8049A059B95
:1024A000FEF740FF019B0600986A0F00FFF78CFDC6
:1024B0000022164BFEF736FF0022144BFEF732FFC8
:1024C0000022184BFEF72EFF049A059B04000D0016
:1024D00002980399FEF726FF02000B002000290056
:1024E000FEF720FF02000B0030003900FDF7DCFF93
:1024F00002000B0006980799FDF7D6FF09B0F0BD62
:102500000000D0400000203E0000B03E0000F03D42
:102510000000A03F0000903F000020400000703FFE
:102520000000F03E0000E03FF7B50191FFF77CFDB1
:10253000019B060018680F00FFF746FD00221D4BA7
:10254000FEF7F0FE02000B0030003900FFF756F9ED
:10255000019B040098680D00FFF736FD0022164B22
:10256000FEF7E0FE0022154BFEF7DCFE220006001F
:102570000F002B0020002900FEF7D4FE02000B0004
:1025800030003900FEF7CEFE019B060058680F00B0
:10259000FFF71AFD00220A4BFEF7C4FE22002B00B3
:1025A000FEF7C0FE02000B0030003900FDF77CFF93
:1025B00003B0F0BD000070400000F03D0000F03EB0
:1025C0000000103E0FB413B5084C04AB04CB4121FE
:1025D0002000019302F0C0F8210082B2044B0548AC
:1025E00001F0F3FA13BC08BC04B01847380200200D
:1025F000FFFF0000E002002010B586B01422002189
:1026000001A801F007FC802090240E4A8002516945
:10261000E405014351615369072103400122200071
:102620000093009B00F098FB07230193063B029365
:1026300003930023200001A9049300F0D7FA06B009
:1026400010BDC0460010024070B5102696B02C2276
:1026500000210BA801F0DEFB3200002101A801F0EF
:10266000D9FB0021142205A801F0D4FB8023022508
:1026700001241B020AA80A950D940E961295139335
:1026800000F070FB011E01D072B6FEE70723039035
:10269000049001A80193029500F08EFD002801D05E
:1026A00072B6FEE7079005A8059400F019FE002811
:1026B00001D072B6FEE716B070BD0000F0B599B05B
:1026C00000F01CFAFFF7C0FFFFF796FF00F090F84C
:1026D00000F05EF9424800F033FA01229020110028
:1026E000C00500F039FB902001220221C00500F056
:1026F00033FB902001220421C00500F02DFB0120B6
:10270000FFF76CFD04000220FFF768FD05000420C0
:10271000FFF764FD012106001B20FFF7E9FC012102
:1027200004907E20FFF7E4FC07000AA90DA8FFF73C
:102730007CFD049B2A00210000932A483300019766
:10274000FFF740FF0424072501212000FFF71CFDAF
:10275000012106002800FFF717FD022107002000D5
:10276000FFF712FD022104902800FFF70DFD210064
:1027700007902000FFF708FD210008902800FFF7D0
:1027800003FD0AA909903800FFF7CEFE02000B00F6
:1027900030000DA9FFF794FD06000F0007980AA965
:1027A000FFF7C2FE02000B0004980DA9FFF788FD99
:1027B0000490059109980AA9FFF7B6FE02000B00E4
:1027C00008980DA9FFF77CFD049A059B02900391E0
:1027D00000920193044832003B00FFF7F3FEB3E799
:1027E00010270000206E00085E6E000872B6FEE73B
:1027F000E0221148D20010B5C26002220F4B0261E4
:1028000003608223013A426180225B00436000231F
:1028100092008261FA3AFF3A8360C36103624362C5
:102820008362C2620363436300F0D4FE002801D0D8
:10283000FFF7DCFF10BDC0467802002000300140E9
:1028400010B5040088B01422002103A801F0E2FAB8
:10285000114B22689A421DD18020104B400199698A
:102860000143996180219A69890202400192019A8B
:102870005A6990200A435A615B69C0050B40029374
:10288000029BE0230393DE3B049303A901330693E9
:1028900000F0ACF908B010BD00300140001002405B
:1028A00001200A4B82B099690143996180219A699C
:1028B000490502400092009ADA690A43DA61DB694D
:1028C0000B400193019B02B07047C04600100240CC
:1028D000FEE7FEE77047704710B500F01FF910BD26
:1028E0000120704710B501F06BFA16230360012038
:1028F000404210BD10B501F063FA16230360FEE7F5
:1029000070B50E0014000025A54201DB200070BD4B
:1029100000E000BF70550135F6E770B50E001400F9
:102920000025A54201DB200070BD705D00E000BF06
:102930000135F6E701204042704780239B010020CB
:102940004B60704701207047002070470B4A0C49CC
:102950000300891A0B4A10B51068002801D10A48F3
:1029600010601068C3188B4206D901F029FA0C23B5
:1029700003600120404210BD1360FCE7000400002A
:1029800000180020DC0200208003002070470000B7
:102990000B480C4B10B50360E1239B020C224360F3
:1029A000002342618360C36003618361C36103628A
:1029B000436201F0D3F9002801D0FFF717FF10BDE3
:1029C000E00200200038014010B5040088B0142255
:1029D000002103A801F01EFA134B22689A4220D16D
:1029E0008020124BC00199690143996180219A6945
:1029F000890202400192019A5A6990200A435A6161
:102A00005B69C0050B400293029BC023DB0003936C
:102A1000022304930133069303A9023B079300F0BA
:102A2000E5F808B010BDC046003801400010024073
:102A300013488546FFF7AAFF12480168090E124A9B
:102A4000914205D1114812490160124812490160B2
:102A500012481349134A002302E0D458C4500433E7
:102A6000C4188C42F9D3104A104C002301E01360C3
:102A70000432A242FBD301F0A9F9FFF71FFEFEE7E3
:102A800000180020040000001F0000001810024081
:102A900001000000000001400000000000000020D4
:102AA0001C0200208C7200081C0200207C03002005
:102AB000FEE7000070B50500FA200D4B8000197884
:102AC000FDF73EFB0B4B01001868FDF739FB00F0EA
:102AD00073F804000120002C09D1032D07D8023817
:102AE0002200290000F03EF82000034B1D6070BD5D
:102AF0004400002040000020480000201023064A27
:102B000010B5116803200B431360FFF7D3FFFFF7E5
:102B1000C7FE002010BDC04600200240034A044BFF
:102B200011681B785B1813607047C046680300206B
:102B300044000020014B18687047C046680300201D
:102B400070B50400FFF7F6FF0500631C02D0044BCC
:102B50001B78E418FFF7EEFF401BA042FAD370BDCC
:102B60004400002030B5FF2503242A000440E4007F
:102B7000A24089012940D243A140C3B200280ADB08
:102B8000C0240B4B80088000C018A40003591A40D1
:102B90001143015130BD0F200340083B05489B08FD
:102BA0009B001B18D86902401143D961F2E7C04667
:102BB00000E100E000ED00E08022431E520401200D
:102BC00093420DD2C021074A07485360036A0906A1
:102BD0001B021B0A0B430362002007239060136053
:102BE0007047C04610E000E000ED00E00023F0B5C3
:102BF00087B00A681400DC4001D107B0F0BD0125A0
:102C000014009D402C4001942A4200D195E04A686E
:102C10005E0094460322644622400324B440E44309
:102C20000294541E012C2AD88768029C2740CC6845
:102C3000B4403C43846044680127AC4325006446AB
:102C400024093C409C402C434460C568029C2540BC
:102C50008C68B4402C43C460022A12D1DC080725DA
:102C6000A4000419276A03940F241D40AD00AC4052
:102C7000A7430C69AC402743039C276201E0032A69
:102C8000E3D10468029DB24025402C001443046047
:102C9000C0246246A40222424FD00125284A902730
:102CA0009469FF052C43946192699C082A4005921F
:102CB000059A244AA400A4180F2202351D40AD0035
:102CC000AA40A66896430022B8420CD01E4F01329B
:102CD000B84208D01D4F0132B84204D01C4F013217
:102CE000B84200D00232AA4067463243A260194A75
:102CF000019C9668019DE4433543FF0201D43500F1
:102D0000254067469560D668019D3543BF0201D4D2
:102D1000350025406746D5605668019D3543BF03A1
:102D200001D435002540674655601568019E2E4345
:102D3000FF0301D425402E001660013359E7C04639
:102D40000010024000000140000400480008004854
:102D5000000C004800040140002A01D08161704746
:102D60008162FCE7F0B5040085B000284AD0036812
:102D7000DB072FD423689B0700D586E023681B0759
:102D800000D5C6E023685B0700D5E9E02368DB06D1
:102D90001AD562690423BA4D012A00D054E1696B47
:102DA00002270B436B636B6B1A436A63FFF7C2FE28
:102DB00006006B6B3B4200D13FE1F8216A6BA369CF
:102DC0008A43DB0013436B63236A002B00D063E16B
:102DD00000202FE00C21AA4D6A680A40042A0BD07B
:102DE0006B680B40082B0FD1C0226B685202134056
:102DF00080225202934207D12B689B03BAD56368A5
:102E0000002BB7D1012015E06368012B14D180237A
:102E10002A685B0213432B60FFF78CFE80270600B5
:102E2000BF022B683B42A5D1FFF784FE801B6428BC
:102E3000F7D9032005B0F0BD002B16D12B68914ABD
:102E4000802713402B602B688F4ABF0213402B60F2
:102E5000FFF770FE06002B683B4200D18AE7FFF7C0
:102E600069FE801B6428F6D9E3E7052B05D1802392
:102E70002A68DB0213432B60C9E72B68814A1340A1
:102E80002B602B68804A1340C5E70C227C4D6B6891
:102E900013420BD06B681340082B15D1C0226B680E
:102EA000520213408022120293420DD12B689B07DD
:102EB00002D5E368012BA5D1F8212A6823698A434A
:102EC000DB0013432B6059E7E2680123002A0FD08F
:102ED0002A68022713432B60FFF72CFE06002B689D
:102EE0003B42E9D1FFF726FE801B0228F7D9A0E775
:102EF0002A6802279A432A60FFF71CFE06002B6807
:102F00003B4200D13AE7FFF715FE801B0228F6D9B5
:102F10008FE7E26901235A4D002A10D06A6A02271E
:102F200013436B62FFF706FE06006B6A3B4200D05C
:102F300028E7FFF7FFFD801B0228F6D979E76A6AC8
:102F400002279A436A62FFF7F5FD06006B6A3B426F
:102F500000D117E7FFF7EEFD801B0228F6D968E7DE
:102F600080220021464D5205EB690091134208D1A1
:102F7000EB691343EB61EB6913400393039B01235C
:102F800000938027414E7F0033683B4206D0A36800
:102F9000012B13D12A6A13432B6230E033683B4381
:102FA0003360FFF7C7FD019033683B42EFD1FFF775
:102FB000C1FD019BC01A6428F6D93AE70122002B13
:102FC00014D12B6A022793432B622B6A033293435B
:102FD0002B62FFF7AFFD06002B6A3B4216D0FFF7CE
:102FE000A9FD2B4B801B9842F6D922E7052B16D161
:102FF000296A013B0B432B622B6A1A432A62FFF7B3
:1030000099FD022706002B6A3B420FD0009B012B43
:1030100000D0BBE6EB691F4A1340EB61B6E62B6AB2
:10302000934304222B622B6A9343B5E7FFF782FD9B
:10303000174B801B9842E6D9FBE6FFF77BFD801B10
:10304000022800D8B5E6F4E6053203D16A6B9A434C
:103050006A63B2E66A6B0227134301226B636B6BF0
:1030600093436B63FFF766FD06006B6B3B4200D139
:10307000AAE6FFF75FFD801B0228F6D9D9E6C04615
:1030800000100240FFFFFEFFFFFFFBFF007000404B
:1030900088130000FFFFFFEF0C21344D6A680A40DF
:1030A000082A47D0324A022B32D12B68802713409E
:1030B0002B60FFF73FFD0600BF042B683B4221D188
:1030C0000F22EB6A80269343E26AB6041343EB6255
:1030D000616AA36A6A680B4326490A4013436B601E
:1030E00080232A685B0413432B60FFF723FD040051
:1030F0002B68334200D06BE6FFF71CFD001B022853
:10310000F6D996E6FFF716FD801B0228D5D990E682
:103110002B68802613402B60FFF70CFD0400B604DB
:103120002B68334200D153E6FFF704FD001B022851
:10313000F6D97EE61800012B00D17BE6C0216B6832
:10314000606A4902EA6A1940814200D05AE60F21BA
:103150000A40E16A8A4200D054E6F022920313400A
:10316000A26A934200D133E64CE6C046001002400A
:10317000FFFFFFFEFF7FC2FF0C220B4910B54B681B
:103180001A40082A0DD1CA6A0F219B0C0B40074830
:103190001140074AC45C515C0648FCF7D1FF60430C
:1031A00010BD0448FCE7C04600100240866E0008CF
:1031B000966E000800127A00F7B504000E00002891
:1031C00001D10120FEBD0122374D2B6813408B42F7
:1031D0001CD321688B0722D4CB072FD401232A6864
:1031E0001A40B24251D82368304D5B0754D4FFF7E0
:1031F000C3FF6B682E4A1B061B0FD35CD8402D4BB8
:1032000018600320FFF756FC0020DBE72B68934390
:103210000B432B602B6813408B42D2D1D9E7234A52
:103220004B0704D5E0235068DB0003435360F020D4
:1032300053688343A06803435360CDE71B4F626824
:103240003B68012A19D19B03BBD503217B688B43C3
:1032500013437B60FFF76EFC01900C237A681A40E1
:1032600063689B009A42B9D0FFF764FC019BC01AC7
:10327000114B9842F1D90320A4E7022A02D19B0105
:10328000E3D49EE79B07E0D49BE72A689A432A6031
:103290002A681A42A7D094E76B68084A1340E2688C
:1032A00013436B60A3E7C0460020024000100240B9
:1032B0006E6E00084000002088130000FFF8FFFF3A
:1032C000044B054A5B685B055B0FD35C034A1068DF
:1032D000D8407047001002407E6E00084000002079
:1032E000F0B50368050085B0DB032AD580220021F4
:1032F0003C4C5205E3690091134208D1E369134342
:10330000E361E36913400393039B01230093802748
:10331000354E7F0033683B4231D0226AC023110012
:103320009B00324E19401A423BD1236A1E406B6803
:103330001E43009B2662012B03D1E3692C4A1340F4
:10334000E3612A68D30706D5032026490B6B834324
:10335000A86803430B63930606D5102021490B6B25
:103360008343E86803430B630020930317D5802150
:103370001C4A136B8B4329690B4313630FE03368BB
:103380003B433360FFF7D6FB019033683B42C4D127
:10339000FFF7D0FB019BC01A6428F6D9032005B0C3
:1033A000F0BD6A6813408B42BFD08023226A206A36
:1033B00011005B0203432362236A0E48314003403D
:1033C00023622162D307B0D5FFF7B4FB07000222C6
:1033D000236A1342A9D1FFF7ADFB074BC01B9842EC
:1033E000F5D9DBE70010024000700040FFFCFFFF52
:1033F000FFFFFFEFFFFFFEFF88130000F0B517008F
:10340000002285B01D0002ABDA7004000E00FFF749
:1034100091FBED192D1AFFF78DFB232223680090F5
:1034200001932A4B1B6853431B0D6B430393216885
:1034300002ABDA1C8B681800304033423BD0C0230B
:10344000DB009E4204D1019B1B7BDBB2137013781F
:103450007B1CEFD0FFF76EFB009BC01AA8422CD359
:10346000E02123685A688A435A60822261685200C8
:1034700091420CD18021A26809028A4203D08021A6
:10348000C9008A4203D140211A688A431A60802108
:10349000A26A89018A4206D119680D480140196063
:1034A00019680A431A60230001225D331A70002351
:1034B00003205C34237005B0F0BD039B5A1E93417A
:1034C0005B421D40039B013BB0E7C046400000202B
:1034D000FFDFFFFFF0B50E0085B015000400FFF719
:1034E00029FBAD192D1AFFF725FB8027254B0190ED
:1034F0001B685B011B0D6B430393226893681800E4
:1035000038403B4232D0731CF8D0FFF713FB019BCD
:10351000C01AA8422CD3E02123685A688A435A6013
:1035200082226168520091420CD18021A268090276
:103530008A4203D08021C9008A4203D140211A68FF
:103540008A431A608021A26A89018A4206D11968D9
:103550000D480140196019680A431A6023000122CE
:103560005D331A70002303205C34237005B0F0BD76
:10357000039B5A1E93415B421D40039B013B0393F7
:10358000BBE7C04640000020FFDFFFFF70B513001F
:103590000D0016000A00C02149010400FFF72EFFAC
:1035A000002805D02023226E0320134323660FE05A
:1035B000320029002000FFF78DFF0028F2D1C02142
:1035C00033002A002000C900FFF718FF0028E9D1C6
:1035D00070BD0000F8B504000120002C67D0636ABC
:1035E000002B65D1822261685200914200D0E361D4
:1035F00000232500A3625D352B78DAB2002B05D1BC
:1036000023005C3320001A70FFF71AF902234021CF
:103610002B702268E56813688B43E0211360C900B2
:1036200000238D4248D8802040018D4200D0A36203
:10363000822366685B0033408426A76836023E40DA
:10364000334302262769A1693E4033430126676957
:10365000B44637403B438027BF000F403B433827E9
:10366000E669090C37403B438027266A37403B43D5
:103670008027A66ABF0137403B4313601023082709
:10368000666A3340666B37403B43F0273F013D405D
:103690001D4304231940294308435060D369084956
:1036A00000200B40D361634620665D342370F8BD73
:1036B0000023236163619BE7F02118000901B4E74F
:1036C000FFF7FFFFF7B51E0003005C3317001A7801
:1036D00004000D000220012A1BD001221A70FFF7FE
:1036E00029FA230001905D331B786168DAB2012B5F
:1036F00009D0822302205B00994207D1A368002BE6
:1037000004D1042A02D1002D04D1012000235C340D
:103710002370FEBD002FF8D0002EF6D023005D33BD
:103720001A78042A01D005221A70220000230832D8
:1037300023662764D687A21DD687E022E068E3646B
:103740002365A5632368E687A687D200904235D912
:103750005A68624F3A405A6040221F68174202D1AD
:103760001F683A431A60E022D200904261D90029D2
:1037700001D0012E07D12A880235DA60E38FA563D4
:10378000013B9BB2E387012502272E00E38F002B2C
:1037900019D123000833DB8F002B14D12000019AAC
:1037A0000899FFF7F3FE002800D093E0236E002B6A
:1037B000ABD1230001225D331A70A7E780225F6836
:1037C00052013A43C7E7206883683B420ED0E38F3B
:1037D000002B0BD0012D09D10025A36B1A880233D1
:1037E000C260A363E38F013B9BB2E3878368190048
:1037F000314033420ED022000832D38F002B09D043
:103800000D00C068236C188002332364D38F013B02
:103810009BB2D387FFF78EF9019BC01A089B984291
:10382000B4D30133B2D0230001225D3303201A70D8
:103830006CE7002901D0012E08D12A781A73A36BF6
:103840000133A363E38F013B9BB2E387012502278A
:103850002E0032E023689A683A420FD0E28F002AA5
:103860000CD0012D0AD10025A26B12781A73A36B1C
:103870000133A363E38F013B9BB2E38723689A681C
:103880001100314032420FD022000832D08F002880
:103890000AD00D001B7B206C0370236C0133236462
:1038A000D38F013B9BB2D387FFF744F9019BC01A2A
:1038B000089B98420AD30133B5D1E38F002BC9D1BD
:1038C00023000833DB8F002BC4D167E7089B002B54
:1038D000F3D1A8E720230120236667E7FFEFFFFF6E
:1038E00030B5EFF31084012282F310880168124D85
:1038F0000B682B400B6084F31088EFF3108482F385
:10390000108801688B6893438B6084F31088036E82
:1039100093420AD1EFF3108183F3108810240268D8
:103920001368A343136081F310882022031DDA6714
:1039300000230366836630BDDFFEFFFF70B5040021
:103940002569A26801682A436569C3692A43086832
:103950003E4D1A43284002430A604A683C48256AA3
:103960000240E06802434A60A26988682A43394DF0
:10397000284002438A60384A914215D10321374AD0
:10398000126B0A408021013A0902022A52D83448B7
:10399000805C8B4214D008284AD8FCF7BDFB0C4948
:1039A00047494449494934002E4A914240D1802236
:1039B0001202934240D0FFF783FC002840D024E05D
:1039C000082835D8FCF7A8FB3834083405343434DB
:1039D0000900FFF7D1FB31E0234B580063686168B1
:1039E0005B08C018FCF7ACFB0200204B103A9A426F
:1039F0001ED80F23020000079A4393B2400F22689B
:103A00001843D0601CE080200002636861685B0896
:103A10001818FCF795FB0200144B103A9A4207D88D
:103A20002368D8600CE0FFF7A7FBC6E70E48ECE779
:103A3000012006E08B42BED1FFF742FC031ECCD131
:103A400000200023A366E36670BDC046F369FFEF64
:103A5000FFCFFFFFFFF4FFFF0038014000100240DE
:103A6000A66E00080044004000127A00EFFF00003C
:103A7000436A30B5DA0706D50168284C4A68224007
:103A8000846A22434A609A0706D50168244C4A6832
:103A90002240C46A22434A605A0706D50168214C75
:103AA0004A682240046B22434A601A0706D501681F
:103AB0001D4C4A682240446B22434A60DA0606D510
:103AC00001681A4C8A682240846B22438A609A06F5
:103AD00006D50168164C8A682240C46B22438A606E
:103AE0005A0610D50168134D4A68046C2A402243D7
:103AF0004A6080225203944205D14A680E4C22400B
:103B0000446C22434A601B0606D502680B49536881
:103B10000B40816C0B43536030BDC046FFFFFDFF7F
:103B2000FFFFFEFFFFFFFBFFFF7FFFFFFFEFFFFF3A
:103B3000FFDFFFFFFFFFEFFFFFFF9FFFFFFFF7FF2D
:103B4000F7B504000D001700082600932268D3691A
:103B50002B405B1B59424B41BB4201D0002021E06E
:103B6000089B0133F3D0FEF7E5FF009BC01A089BCA
:103B7000984228D8002B26D0042123681A680A42CC
:103B8000E4D0DA6911003140019132420BD02000BB
:103B90001E62FFF7A5FE23000833DE670023012025
:103BA00078342370FEBD8022D96912011142CDD034
:103BB0001A622000FFF794FE230020220833DA6700
:103BC000019B783423700320ECE7F0B585B00393B4
:103BD000C36F04000D0016000220202B39D10138DC
:103BE000002936D0002A34D08023A2685B019A4293
:103BF00004D12369002B01D101422AD123000022E4
:103C00000833DA672123E367FEF794FF230050337C
:103C10001E8002331E8002938023A26807000026C4
:103C20005B019A4204D12369B34201D12E001D00E9
:103C3000230052331B889AB2002B0CD1039B4021E6
:103C4000009320003B00FFF77BFF2023E367002861
:103C50000DD105B0F0BD039B0022009380213B00F5
:103C60002000FFF76DFF002803D02023E367032027
:103C7000EFE72268002D0BD133880236DB05DB0D20
:103C80001385029B029A1B88013B9BB21380CFE7EE
:103C90002B7801351385F4E70300F7B50025040000
:103CA0000833DD67FEF746FF2600236807001B6820
:103CB00078361B071BD58021264B2A0000938903E9
:103CC00003002000FFF73CFFA84210D0EFF3108163
:103CD000012383F3108880202268136883431360D4
:103CE00081F310882023E36735700320FEBD250093
:103CF00008CD1B685B0725D58021164B0022009359
:103D000020003B00C903FFF71BFF00281AD0EFF388
:103D10001080012282F3108821680F4F0B683B400E
:103D20000B6080F31088EFF3108082F31088216815
:103D30008B6893438B6080F310882023EB6700230C
:103D40003370D2E700202023E367EB6720666066CC
:103D50003070CBE7FFFFFF01DFFEFFFF10B5041E51
:103D600001D1012010BDC36F002B04D102007832B5
:103D70001370FEF729FE242301212268E3671368EC
:103D800020008B431360FFF7D9FD0128E9D0636A57
:103D9000002B02D02000FFF76BFE236807495A680A
:103DA00020000A4008215A609A688A439A600122DA
:103DB00019680A431A60FFF76FFFD3E7FFF7FFFFA9
:103DC000014B18687047C0464C00002070B50026B3
:103DD0000C4D0D4C641BA410A64209D1002602F024
:103DE000D3FF0A4D0A4C641BA410A64205D170BD36
:103DF000B300EB5898470136EEE7B300EB5898470D
:103E00000136F2E7847200088472000884720008A8
:103E10008872000803008218934200D1704719701D
:103E20000133F9E7F0B51E00002314008BB09E4269
:103E300004DA8021090673181E002D23129A149F9C
:103E40001370202303229F43462F07D03B00453B9E
:103E500059424B411099013ACB18109309AB049386
:103E600008AB0393139B00920293109B22000193D3
:103E7000330000F009FD0500472F02D1119BDB073D
:103E800028D5109BEB180793462F14D12B78302B95
:103E90000CD10022002320003100FCF7D7FA0028C3
:103EA00004D10123109A9B1A139A1360139B079A4B
:103EB0001B68D31807930022002320003100FCF771
:103EC000C5FA002801D0079B09933022099B079966
:103ED0008B4206D32800099B159A5B1B13600BB01D
:103EE000F0BD591C09911A70F0E7F0B5831C87B03A
:103EF000039305000C002B230270002901DA4C42C9
:103F000002336B70092C31DD0A2704ABDE1D200063
:103F100039000196FCF784FA013E303120003170FF
:103F200039000294FCF796F9029B0400632BEEDC47
:103F3000019B30349A1E13000399147004A80730B3
:103F400098420ED804AB073300209A4204D804AB41
:103F50000930C018019BC01A039B1818401B07B0FA
:103F6000F0BD1878013308700131E7E73023E41819
:103F7000AB70281DEC70F1E7F0B595B00C0009921C
:103F80001E001A9D070001F099FA036818000C93AF
:103F9000FCF7BAF800231293237E07220A932368C2
:103FA0000E900D930D992B68C90547D59B18934327
:103FB0001A0008322A601A685B68A264E36401226E
:103FC000A36CE56C0B936B005B080F930B98A74BEE
:103FD0000F995242FDF7A4FF002831D10122A34BD3
:103FE0000B980F995242FCF741FA002828D1002281
:103FF000002329000B98FCF72FFA002803D0230098
:104000002D2243331A700A9B994D472B00D9994DA5
:1040100003230D9A236101339A43002322600B93FB
:10402000099B21003800009613AA00F0E7F9431C11
:1040300000D0A2E00120404215B0F0BD0733B6E742
:104040000B9A2B0010002900FDF76AFF00280BD007
:10405000002D03DA23002D2243331A700A9B864D6C
:10406000472BD5D9854DD3E720220A996368914320
:104070000F915A1C49D10733636080230D9ADB00EE
:1040800013430022069212AA05920A9A08A90492E2
:1040900011AA0392232223600193636852180292AB
:1040A000009338002B000B9AFFF7BCFE0F9B050016
:1040B0001199472B08D1CB1C02DB6368994248DD7C
:1040C0000A9B023BDBB20A930A9B652B24D8200093
:1040D0001A00013950301191FFF707FF129A0B9027
:1040E00013182361012A02DC2268D20701D50133AB
:1040F0002361232308AA9B181B78002B00D18FE78C
:1041000023002D2243331A708AE70F9A472AB4D12D
:10411000002BB2D10133AFE70A9B662B1BD163683A
:1041200000290DDD2161002B02D12268D20702D5C2
:10413000013359182161119BA36500230B93D8E724
:10414000002B03D101222168114200D09A1C226168
:10415000F1E767230A93119B129A934206DB2268C8
:104160002361D207E7D501332361E4E70121002B66
:1041700001DC4918C91A5218E9E72268530507D427
:1041800023692A0038000999B047431C28D151E718
:104190000A9B652B00D8E1E0A06CE16C00220023B3
:1041A000FCF754F9002831D001233800344A09992A
:1041B000B047431C00D13DE7119B129A934202DBAA
:1041C0002368DB070CD538000E9B0C9A0999B04781
:1041D0000025431C00D12DE7129B013BAB420ADCBA
:1041E00023689B0700D506E1139BE068984200DB3B
:1041F00022E7180020E722000123380009991A322B
:10420000B047431C00D115E70135E5E7119B002BB2
:1042100038DC012338001A4A0999B047431C00D101
:1042200008E7119B129A134302D12368DB07D7D505
:104230000E9B38000C9A0999B047431C00D1F9E64F
:1042400000230A93119B0A9A5B42934201DC129B62
:1042500097E722000123380009991A32B047431C1E
:1042600000D1E7E60A9B0133EBE7C046FFFFEF7F93
:10427000B06E0008B46E0008B86E0008BC6E00088E
:10428000C06E0008129AA36D0A929A4200DD0A934A
:104290000A9B002B3CDC00230D930A9BDB43DB17BE
:1042A0000F93A36D0F9A0B930A9B13400B9AD31A8B
:1042B0000D9A934234DC119B129A93423DDB2368A2
:1042C000DB073AD4129A0B9B1199D31A521A0A920D
:1042D0009A4200DD0A930A9B002B36DC0A9B0025DC
:1042E000DB43DB170B93119A129B0B999B1A0A9ACB
:1042F0000A409B1AAB4200DC72E72200012338001F
:1043000009991A32B047431C00D193E60135EAE718
:104310000A9B2A0038000999B047431CBBD189E6A3
:1043200022000123380009991A32B047431C00D1FA
:1043300080E60D9B01330D93B3E70E9B38000C9A7A
:104340000999B047431CBDD174E60B9B3800EA18AD
:1043500009990A9BB047431CC0D16BE6129B012B05
:1043600002DC01231A4234D001232A0038000999C3
:10437000B047431C00D15DE60E9B38000C9A0999AA
:10438000B047431C00D155E6A06CE16C002200232D
:10439000FCF75CF800281AD1129B6A1C013B38001C
:1043A0000999B047431C0ED144E62200012338008E
:1043B00009991A32B047431C00D13BE60135129BE4
:1043C000013BAB42F1DC22000B9B5032DAE60025C8
:1043D000F5E72A00E3E722000123380009991932A2
:1043E000B047431C00D125E60135E368139A9B1AB8
:1043F000AB42F0DCF8E60025F7E7C046F7B515005C
:1044000001938A680B690C000090934200DA130054
:1044100022002B6043321278002A01D001332B6036
:1044200023689B0602D52B6802332B602268062383
:1044300017001F401A4227D0230043331B785A1E0F
:1044400093412268920630D4220001990098089E78
:104450004332B047431C25D0062320682A68E16810
:1044600000250340042B03D18D1AEB43DB171D40BD
:10447000A3682269934201DD9B1AED180027BD4213
:1044800020D1002010E00137E3682A689B1ABB4264
:10449000D2DD2200012301990098089E1932B0470D
:1044A000431CF0D101204042FEBD3020E1184331D1
:1044B000087021005A1C45310978A2184332023392
:1044C0001170C1E72200012301990098089E1A3259
:1044D000B047431CE6D00137D1E70000F0B58BB000
:1044E00006920A0043320793059004920A7E0C005C
:1044F000109B782A07D8622A09D8002A00D1C1E087
:10450000582A00D18CE026004236327022E010009A
:1045100063381528F7D8FBF709FE16001F00F6FFD1
:10452000F6FFF6FFF6FF1F00F6FFF6FFF6FFF6FFB9
:10453000A80036009A00F6FFF6FFB900F6FF360035
:10454000F6FFF6FF9E0026001A684236111D19601C
:10455000136833700123A7E0086819680A1D05066F
:104560000BD50D681A60002D03DA2D23049A6D42D5
:104570001370614B0A2703931BE00D681A60410614
:10458000F1D52DB2EFE70D681968081D18602E06E9
:1045900001D50D6803E06D06FBD50D68ADB2564B35
:1045A000082703936F2A00D00237230000224333E9
:1045B0001A706368A360002B03DB04222168914317
:1045C0002160002D02D1049E002B0CD0049E2800F7
:1045D0003900FBF73BFE039B013E5B5C33702B0015
:1045E00005009F42F3D9082F09D12368DB0706D5C0
:1045F00063682269934202DC3023013E3370049BDE
:104600009B1B2361079B210000930598069B09AA29
:10461000FFF7F4FE431C4CD1012040420BB0F0BD2B
:1046200045310A70344A03921A68216820CA1A6018
:10463000080616D5CB0702D5202319432160102781
:10464000002DB2D1202322689A432260ADE72022B8
:1046500009680A4322602200782145321170274AF6
:10466000E1E74806E6D5ADB2E4E71A680D68101D2B
:104670004969186013682E0601D5196002E06D06BD
:10468000FBD519800023049E2361BBE71A68111D26
:104690001960166800213000626800F01DFF0028D4
:1046A00001D0801B6060636823610023049A13704B
:1046B000A8E72369320006990598079DA847431C7F
:1046C000AAD023689B0715D4099BE0689842A5DA15
:1046D0001800A3E72200012306990598079E1932C6
:1046E000B047431C98D00135E368099A9B1AAB4246
:1046F000F0DCE9E70025F7E7C26E0008D36E00089A
:1047000030B5140005001A009BB0002C05DA8B238D
:104710000360012040421BB030BD822368469B00ED
:1047200083810023009104919C4200D0631E029378
:104730000593012369465B42CB8128001E9B01F053
:10474000EBFB431C01DA8B232B60002CE3D000230E
:10475000009A1370DFE7000007B5009313000A000A
:10476000010002480068FFF7CBFF0EBD4C0000209F
:10477000F0B506000B69326987B0002003919A42B8
:1047800065DB013B9C0000930B00143305931B1960
:1047900004933300143302931C19049B27681B688D
:1047A00038005D1C29000193FBF7CAFC0190AF4261
:1047B00024D30025AC460298059F08CF019A99B2F0
:1047C00051431B0C534349190A0C9B18026889B2C8
:1047D00092B26244521A01681D0C090C9BB2CB1AAA
:1047E00011145B18191492B21B041A43049B8C46D3
:1047F00004C0BB42E1D22368002B30D030000399C3
:1048000001F002F9002821DB30000024019B03990C
:104810000133019314301431036820C99AB214197A
:10482000AAB2A21A1B0C2D0C14145B1B1B191C140E
:1048300092B21B04134308C0049B8B42ECD2009B32
:10484000029A9B00D3181A68002A15D0019807B065
:10485000F0BD2368002B06D1009B013B0093029B17
:10486000043CA342F5D3009B3361C7E71A68002AD2
:1048700006D1009A013A0092029A043B9A42F5D37B
:10488000009B3361E2E70000F0B59DB00292039314
:10489000029B039C08930994446A0700259D002C01
:1048A0000ED1102000F00EFE021E786204D1EA2123
:1048B000C74BC84801F042FC446084600460C46097
:1048C0007B6A196800290AD05A68012393404A601C
:1048D0008B60380000F058FE00227B6A1A60039B50
:1048E000002B20DA01232B60039B5B005B080993FC
:1048F000099DB94BB84A2B40934217D1B74B249A24
:1049000028031360029B000B184301D100F0BFFD88
:10491000B348269B0690002B02D0B24B269A136018
:1049200006981DB0F0BD00232B60E1E7089B099CB1
:10493000129313941298139900220023FBF786FD1B
:10494000041E09D00123249A1360A74B0693269BCB
:10495000002BE5D0A54BE1E71AAB01931BAB00930D
:104960003800129A139B01F003F96E000590760D42
:1049700000D17CE012981399139B9D4A1B031B0BDB
:104980001A4311009B4B1894F61800229A4BFCF71F
:1049900035FF9A4A9A4BFCF7C5FC9A4A9A4BFBF7AB
:1049A00083FD040030000D00FDF70EFB974A984B85
:1049B000FCF7B8FC02000B0020002900FBF774FD97
:1049C00004000D00FDF7CAFA002202900023200027
:1049D0002900FBF741FD00280BD00298FDF7F4FAFF
:1049E0002B002200FBF732FD43425841029B1B1A69
:1049F000029301231693029B162B0FD8129813993A
:104A0000DA00844B9B181A685B68FBF725FD0028C9
:104A100049D0029B013B0293002316931A9B9E1BD5
:104A200000230A933300013B0D9304D501239B1B04
:104A30000A9300230D93029B002B36DB029A0D9BF9
:104A4000944663440D93002315920E93229B0124F8
:104A5000092B64D8052B02DD0024043B2293229B02
:104A6000981E032864D8FBF757FB293836581A9B41
:104A70001B9A9E18684BF218202A0FDD40239B1AC0
:104A80009D40664B0298F318D8402843FDF7CCFAB6
:104A90000123634C013E0919189376E720230298FD
:104AA0009B1A9840F2E71690B8E70A9B029A9B1A65
:104AB0000A9353420E9300231593C7E700230F93E5
:104AC000239B0C930793002B13DC01231A000C93F8
:104AD000079323920DE00123F1E70023239A0F931C
:104AE0009446029B63440C9301330793002B00DC34
:104AF00001230022786A42600432150014354168AF
:104B00009D4219D9380000F0FBFC0690002817D10F
:104B1000D5210200434B4900CBE60123DEE7002309
:104B20000F942293013B0C93079300221333D0E799
:104B300001230F93023BF6E7013141605200DCE7AD
:104B40007B6A069A1A60079B0E2B00D9EBE0002CBB
:104B500000D1E8E0029B002B68DD1A000F212D4BED
:104B60000A40D2009B181D685E68029B1C1102233C
:104B70001093029BDB050BD52B4B0C401A6A5B6A2A
:104B800012981399FBF7CCFF032308900991109317
:104B9000254B1493002C08D1089809992A0033005A
:104BA000FBF7BEFF089009915CE001231C420BD08B
:104BB000109B280001331093149B31001A685B6826
:104BC000FCF7B0FB05000E00149B64100833E0E70F
:104BD000F16E0008086F00080000F07F0F2700004A
:104BE000ED6E0008F06E0008C06E0008C16E00088F
:104BF0000000F03F01FCFFFF0000F83F61436F63DE
:104C0000A787D23FB3C8608B288AC63FFB799F50E5
:104C10001344D33FF86F0008320400001204000070
:104C2000000010FE636F0008D06F0008022310938D
:104C3000029B002B16D0129813995C420F23B64AA0
:104C40002340DB00D3181A685B68FCF76BFB012676
:104C5000002308900991B14D2411002C00D094E05C
:104C6000002B9FD1169B002B00D19BE0089C099D37
:104C7000002220002900AA4BFBF7EEFB002800D100
:104C800090E0079B002B00D18CE00C9B002B46DDB5
:104C9000029B0022200029005E1EA24BFCF742FB73
:104CA000109B08900991013310930C9B1098089C5D
:104CB000099D1493FDF788F922002B00FCF732FBC5
:104CC0000022994BFBF7F0FB10901191109A119B69
:104CD00008920993954A119B94466344179309934C
:104CE000149B002B61D1002220002900904BFCF77F
:104CF00085FD089A179B04000D00FBF7C1FB0028F7
:104D000000D0AFE28B481199844661440B0020002B
:104D10002900089AFBF7A0FB002800D09FE2129B15
:104D2000139C089309941B9B002B00DA72E1029AF2
:104D30000E2A00DD6EE1784BD2009B185C681B6880
:104D40000A930B94239B002B00DBF7E0079B002BBF
:104D500000DDF3E000D082E20A980B990022744B48
:104D6000FCF7E0FA089A099BFBF794FB079E3500D5
:104D7000002800D059E2069B069A0133089331239C
:104D80001370029B0133029354E2344207D0109B0C
:104D9000013310932A686B68FCF7C4FA330064107F
:104DA00008355AE7029E079B80E7149B0F995A1E0D
:104DB000594BD2009B181A685B68002951D000201B
:104DC0005D49FBF7ADFE089A099BFCF717FD069AB3
:104DD000069B94461793149B10901191634419936A
:104DE00029002000FDF7BAF81490FDF7EDF8020055
:104DF0000B0020002900FCF701FD179B179A0133D7
:104E00000893149B040030331370109A119B0D000B
:104E1000FBF722FB002875D122002B00002040491F
:104E2000FCF7ECFC109A119BFBF716FB002800D056
:104E3000D2E0199B089A934200D170E7109811991B
:104E40000022384BFCF76EFA364B1090119100227D
:104E500020002900FCF766FA089B04000D00179358
:104E6000BEE708980999FCF75DFA069A069B9446F6
:104E70000893149B1090119163441993290020000A
:104E8000FDF76CF81790FDF79FF802000B0020006B
:104E90002900FCF7B3FC179B089A303313701300FA
:104EA000199A013304000D00089393422CD11098F5
:104EB0001199069A149B94466344002208931E4B52
:104EC000FBF7F2FA02000B0020002900FBF7D8FAEA
:104ED000002800D080E0109A119B00201649FCF7B2
:104EE0008DFC02000B0020002900FBF7B5FA00281A
:104EF00000D114E7089B1A00013A08921278302A70
:104F0000F8D00893029655E00022064BFCF70AFA07
:104F100004000D00B2E7C046F86F0008D06F00082B
:104F20000000F03F0000244000001C400000C0FCD6
:104F3000000014400000C07C0000E03F079B069E7C
:104F4000013B9B190C93089C099D0A9A0B9B20001E
:104F50002900FBF7E5FDFDF701F80790FDF734F8B0
:104F60000A9A0B9BFCF7DEF902000B0020002900D7
:104F7000FCF744FC3300079A013630321A700C9A61
:104F800008969A4239D102000B00FBF78DFA0A9A73
:104F90000B9B04000D00FBF773FA00281BD10A9A43
:104FA0000B9B20002900FBF751FA002802D0079B39
:104FB000DB0710D43800059900F0E6FA0023089AC0
:104FC00002981370249B01301860269B002B00D19F
:104FD000A6E41A60A4E4029E089B0893013B1A7899
:104FE000392A06D1069A9A42F7D13022069901361B
:104FF0000A701A7801321A7084E70022AA4BFCF773
:1050000091F90022002304000D00FBF71FFA00288D
:105010009BD0CFE70F9D0E9E0A9C002D12D0229AA6
:10502000012A66DC189A002A5DD0A04A9B180A9AC9
:105030000121D2180A920D9A3800D3180D9300F06E
:1050400053FB0500002C0EDD0D9B002B0BDD0D9A94
:105050002300944200DD13000A9AE41AD21A0A923D
:105060000D9AD31A0D930E9B002B1FD00F9B002B74
:1050700054D0002E11DD29003200380000F0FAFB78
:10508000059A01000500380000F044FB05991490D2
:10509000380000F079FA149B05930E9B9A1BB342DB
:1050A00004D03800059900F0E5FB05900121380097
:1050B00000F01AFB159B0600002B31DD1A000100E1
:1050C000380000F0D7FB229B0600012B2DDD0023CA
:1050D0000E93336903339B00F318586800F0BCFA51
:1050E0002023181A39E036231A9A0E9E0A9C9B1A1E
:1050F0009DE7079B5E1E0E9BB34207DB9E1B079B33
:105100000A9C002B93DAE41A002390E70E9B159A71
:10511000F31AD3180E9615930026F0E70E9AC0E7FF
:1051200000230E93229B012B13DC00230E93089B7C
:10513000002B0ED1099B1B030BD15D4B099A134227
:1051400007D00A9B01330A930D9B01330D93012372
:105150000E93159B0120002BBBD10D9B1F2218180D
:1051600003001340104246D00132D21A042A3FDD18
:105170001C22D31A0A9AE418D2180A920D9AD3184C
:105180000D930A9B002B05DD1A003800059900F0ED
:10519000CDFB05900D9B002B05DD31001A0038007A
:1051A00000F0C4FB0600169B002B26D031000598AA
:1051B00000F02AFC002820DA029B0A22013B02931D
:1051C00038000023059900F003FA0F9B0590002B8F
:1051D00000D166E1002329000A22380000F0F8F926
:1051E0000C9B0500002B47DC229B022B0DDC43E0CF
:1051F000042AC6D013001C33BCE7079B002B35DC08
:10520000229B022B32DD079B0C930C9B002B0CD1B5
:1052100031000522380000F0DBF906000100059896
:1052200000F0F2FB002800DDA5E5239BDB430293A1
:10523000069B089300243100380000F0A5F9002DEA
:1052400000D1B7E6002C05D0AC4203D021003800D5
:1052500000F09AF92900380000F096F9AAE6002635
:105260003500E2E70296149E350084E50F9B002B83
:1052700000D1CEE0079B0C93002C05DD2900220015
:10528000380000F053FB05000E9B2800002B22D0B5
:105290003800696800F034F9041E0FD10200054B94
:1052A0000549FFF706FBC046000024403304000018
:1052B0000000F07F636F0008EA02000029002B69FC
:1052C0000C319A1C92000C3000F011F901222100DF
:1052D000380000F02BFB069B0C9A0A93013B9B18AD
:1052E00001222C0005001493089B13400F933100FA
:1052F0000598FFF73DFA0300210030330D90059823
:10530000079300F081FB2A000E903100380000F076
:1053100097FBC3680890109301230C93109B002BFC
:1053200004D10100059800F06FFB0C90380008993B
:1053300000F02AF90A9B0C9A01330893229B13432D
:105340000F9A13430CD1079B392B26D00E9B002BB1
:1053500002DD0D9B313307930A9B079A1A706AE7A7
:105360000E9B002B04DB229A13430F9A13431FD189
:105370000C9B002BF0DD05990122380000F0D6FAD5
:105380003100059000F040FB002803DCE4D1079BCE
:10539000DB07E1D5079B392BDBD139230A9A137040
:1053A000089B0893013B1A78392A68D00132D5E767
:1053B0000C9B002B07DD079B392BEED0079B0A9A2D
:1053C0000133137037E70A9B079A1A70149B0A9AE5
:1053D00093423ED000230A220599380000F0F8F8E5
:1053E000002305900A2221003800AC4206D100F0CB
:1053F000EFF804000500089B0A9378E700F0E8F84E
:105400002900040000230A22380000F0E1F805001A
:10541000F1E7079B0C93002431000598FFF7A8F9EA
:10542000069B303018550C9B01340790A34207DDD2
:1054300000230A223800059900F0CAF80590EBE72E
:105440000C9B0120002B00DD18000024069B1B187C
:10545000089305990122380000F068FA31000590A0
:1054600000F0D2FA00289BDC02D1079BDB0797D41F
:10547000089B0893013B1A78302AFAD0DBE6069A9B
:105480009A428ED1029B01330293312399E7094B53
:10549000269A0693084B002A01D0FFF73FFAFFF740
:1054A0003FFA0C9B002BB6DC229B022B00DDACE606
:1054B000B1E7C046E46E0008EC6E00080048704793
:1054C000A001002010B5034B0100186800F04CFC4F
:1054D00010BDC0464C000020C9B28218904201D1D4
:1054E0000020704703788B42FBD00130F6E70023A1
:1054F00010B59A4200D110BDCC5CC4540133F8E71A
:1055000070B5456A06000C00002D0ED11020FFF783
:10551000D9FF021E706204D16621194B194800F0B0
:105520000DFE456085600560C560756AEB68002BFF
:1055300013D0736AA200DB689B181868002818D182
:1055400001210D00A5406A1D3000920000F074FB9F
:1055500000280CD0446085600DE021220421300039
:1055600000F06AFB736AE860DB68002BE1D1002081
:1055700070BD02681A6000230361C360F8E7C0468B
:10558000F16E0008746F000870B5466A05000C00E3
:10559000002E0ED11020FFF795FF021E686204D185
:1055A0008A21094B094800F0C9FD46608660066003
:1055B000C660002C07D06B6A6268DB6892009B189B
:1055C0001A6822601C6070BDF16E0008746F0008DC
:1055D000F7B50E0001900C001D0000200F69143675
:1055E0003368013099B251431B0C534349190D0CD8
:1055F0005B191D0C89B21B045B1808C68742EFDCDF
:10560000002D22D0A368BB4219DC63680198591CA5
:10561000FFF776FF061E05D10200B5210C4B0D48A1
:1056200000F08CFD210023690C319A1C92000C3093
:10563000FFF75DFF21000198FFF7A6FF34003B1D37
:105640009B00E3185D607B1C23612000FEBDC0460B
:10565000636F0008746F00080300020C0020824290
:1056600001D11B0410301A0E01D108301B021A0F91
:1056700001D104301B019A0F01D102309B00002B95
:1056800003DB01305B0000D4202070470368020078
:105690000721180008400B420DD0063900200B42AC
:1056A00005D10230034203D0CB400800136070479D
:1056B0009B081360FBE799B2002901D110201B0C55
:1056C000D9B2002901D108301B0A190701D10430D1
:1056D0001B09990701D102309B08D907E9D4013091
:1056E0005B08E6D12020E2E710B50C000121FFF7AE
:1056F00007FF002806D1A0210200044B04484900FE
:1057000000F01CFD01234461036110BD636F0008BC
:10571000746F0008F0B50B69140012690D0089B0B0
:10572000934201DA25000C002F6926696968BB19CC
:105730000293AB68BA19934200DA0131FFF7E0FE39
:105740000190002806D15E210200484B4848FF31F5
:1057500000F0F4FC019B002214339C46BB199B0013
:1057600063440393634603998B422CD32B0022009E
:105770001433BF0014320693B600DB190493931957
:105780000793042305932B00049915330092994243
:1057900005D34B1B153B9B0801339B000593079BCF
:1057A000009A9A4211D3029B002B06DD039B043B17
:1057B00003931B680093002B53D0019B029A18009F
:1057C0001A6109B0F0BD04C3CDE7009B1B6898B215
:1057D00000281BD067460024069E02CE3A688BB292
:1057E000434392B29B181B190C0C44433A68110CAA
:1057F00061181C0C09190C0C9BB209040B4308C757
:10580000049BB342E9D86346059A9C50009B1B68F1
:105810001E0C20D063462C00604600271B68143401
:1058200022689BB291B271430268120C8918CF1999
:1058300039040B43036002CC4368090C71439BB2EB
:105840003F0CCB18049ADB191F0C0430A242E7D896
:10585000624605995350009B0433009304239C44F3
:105860009DE7029B013B02939DE7C046636F0008E2
:10587000746F0008F7B50323150007000E001A40E7
:105880001D4208D02549013A9200525800233100A8
:10589000FFF79EFE0600AD103DD07C6A002C0FD1B4
:1058A0001020FFF70FFE021E786205D1D7211C4B96
:1058B0001C48490000F042FC446084600460C460FD
:1058C0007B6A9C680193002C08D138001649FFF7C9
:1058D0000BFF019B040098600023036001231D421D
:1058E0000AD0310022003800FFF714FF3100019088
:1058F0003800FFF749FE019E6D100CD0206800288B
:1059000007D1220021003800FFF704FF00232060A8
:1059100003600400E2E73000FEBDC046C07000082E
:10592000F16E0008746F000871020000F0B50C0001
:1059300017002369551187B0EB18029301330193C7
:105940004968A3680490019A934210DB0498FFF71A
:10595000D7FD0023020006001900143298420CD132
:10596000DA210200264B2748FF3100F0E7FB013126
:105970005B00E8E7980011500133AB42FADBEB43E0
:10598000DB171D401F2123003800AD005519226987
:1059900014339200084084469A180F422AD00131ED
:1059A000091A05910021039567461868B84001431C
:1059B000039802C002CB03900598C1409A42F3D8E5
:1059C000200015300423824204D3131B153B9B088F
:1059D00001339B00E950002902D0029B023301935E
:1059E000019B0498013B21003361FFF7CDFD30009E
:1059F00007B0F0BD02CB02C59A42FBD8F0E7C04623
:105A0000636F0008746F000802690B6930B5040009
:105A1000D01A9A420DD19B0014341431E218C918DF
:105A2000043A043915680B689D4203D001209D4259
:105A300003D330BD9442F3D3FBE74042F9E70000C3
:105A4000F0B50E0007001100300087B01400FFF71A
:105A5000DBFF051E10D101003800FFF751FD021ECB
:105A600004D1404B4049414800F068FB01234561A7
:105A70000361100007B0F0BD01230193002804DB8F
:105A8000230034001E000023019338006168FFF7F3
:105A900037FD021E03D19021324B8900E3E7019BC1
:105AA0000027C360206914340194019B84001B19F2
:105AB000340002933369143499006318039313007C
:105AC00014339C460593019B0493049B02CC20CB8A
:105AD0000493ABB2DF198BB2FB1A090C2D0C6D1AB3
